{
  "_format": "hh-sol-artifact-1",
  "contractName": "Shiritori",
  "sourceName": "contracts/shiritori.sol",
  "abi": [
    {
      "inputs": [],
      "stateMutability": "nonpayable",
      "type": "constructor"
    },
    {
      "anonymous": false,
      "inputs": [
        {
          "indexed": true,
          "internalType": "address",
          "name": "account",
          "type": "address"
        },
        {
          "indexed": true,
          "internalType": "address",
          "name": "operator",
          "type": "address"
        },
        {
          "indexed": false,
          "internalType": "bool",
          "name": "approved",
          "type": "bool"
        }
      ],
      "name": "ApprovalForAll",
      "type": "event"
    },
    {
      "anonymous": false,
      "inputs": [
        {
          "indexed": true,
          "internalType": "address",
          "name": "previousOwner",
          "type": "address"
        },
        {
          "indexed": true,
          "internalType": "address",
          "name": "newOwner",
          "type": "address"
        }
      ],
      "name": "OwnershipTransferred",
      "type": "event"
    },
    {
      "anonymous": false,
      "inputs": [
        {
          "indexed": true,
          "internalType": "address",
          "name": "operator",
          "type": "address"
        },
        {
          "indexed": true,
          "internalType": "address",
          "name": "from",
          "type": "address"
        },
        {
          "indexed": true,
          "internalType": "address",
          "name": "to",
          "type": "address"
        },
        {
          "indexed": false,
          "internalType": "uint256[]",
          "name": "ids",
          "type": "uint256[]"
        },
        {
          "indexed": false,
          "internalType": "uint256[]",
          "name": "values",
          "type": "uint256[]"
        }
      ],
      "name": "TransferBatch",
      "type": "event"
    },
    {
      "anonymous": false,
      "inputs": [
        {
          "indexed": true,
          "internalType": "address",
          "name": "operator",
          "type": "address"
        },
        {
          "indexed": true,
          "internalType": "address",
          "name": "from",
          "type": "address"
        },
        {
          "indexed": true,
          "internalType": "address",
          "name": "to",
          "type": "address"
        },
        {
          "indexed": false,
          "internalType": "uint256",
          "name": "id",
          "type": "uint256"
        },
        {
          "indexed": false,
          "internalType": "uint256",
          "name": "value",
          "type": "uint256"
        }
      ],
      "name": "TransferSingle",
      "type": "event"
    },
    {
      "anonymous": false,
      "inputs": [
        {
          "indexed": false,
          "internalType": "string",
          "name": "value",
          "type": "string"
        },
        {
          "indexed": true,
          "internalType": "uint256",
          "name": "id",
          "type": "uint256"
        }
      ],
      "name": "URI",
      "type": "event"
    },
    {
      "inputs": [
        {
          "internalType": "address",
          "name": "account",
          "type": "address"
        },
        {
          "internalType": "uint256",
          "name": "id",
          "type": "uint256"
        }
      ],
      "name": "balanceOf",
      "outputs": [
        {
          "internalType": "uint256",
          "name": "",
          "type": "uint256"
        }
      ],
      "stateMutability": "view",
      "type": "function"
    },
    {
      "inputs": [
        {
          "internalType": "address[]",
          "name": "accounts",
          "type": "address[]"
        },
        {
          "internalType": "uint256[]",
          "name": "ids",
          "type": "uint256[]"
        }
      ],
      "name": "balanceOfBatch",
      "outputs": [
        {
          "internalType": "uint256[]",
          "name": "",
          "type": "uint256[]"
        }
      ],
      "stateMutability": "view",
      "type": "function"
    },
    {
      "inputs": [
        {
          "internalType": "address",
          "name": "account",
          "type": "address"
        },
        {
          "internalType": "address",
          "name": "operator",
          "type": "address"
        }
      ],
      "name": "isApprovedForAll",
      "outputs": [
        {
          "internalType": "bool",
          "name": "",
          "type": "bool"
        }
      ],
      "stateMutability": "view",
      "type": "function"
    },
    {
      "inputs": [],
      "name": "lastWord",
      "outputs": [
        {
          "internalType": "uint256",
          "name": "",
          "type": "uint256"
        }
      ],
      "stateMutability": "view",
      "type": "function"
    },
    {
      "inputs": [
        {
          "internalType": "uint256",
          "name": "word",
          "type": "uint256"
        },
        {
          "internalType": "uint256",
          "name": "authenticationWords",
          "type": "uint256"
        }
      ],
      "name": "mint",
      "outputs": [],
      "stateMutability": "nonpayable",
      "type": "function"
    },
    {
      "inputs": [],
      "name": "nextTokenId",
      "outputs": [
        {
          "internalType": "uint256",
          "name": "",
          "type": "uint256"
        }
      ],
      "stateMutability": "view",
      "type": "function"
    },
    {
      "inputs": [],
      "name": "owner",
      "outputs": [
        {
          "internalType": "address",
          "name": "",
          "type": "address"
        }
      ],
      "stateMutability": "view",
      "type": "function"
    },
    {
      "inputs": [],
      "name": "renounceOwnership",
      "outputs": [],
      "stateMutability": "nonpayable",
      "type": "function"
    },
    {
      "inputs": [
        {
          "internalType": "address",
          "name": "from",
          "type": "address"
        },
        {
          "internalType": "address",
          "name": "to",
          "type": "address"
        },
        {
          "internalType": "uint256[]",
          "name": "ids",
          "type": "uint256[]"
        },
        {
          "internalType": "uint256[]",
          "name": "amounts",
          "type": "uint256[]"
        },
        {
          "internalType": "bytes",
          "name": "data",
          "type": "bytes"
        }
      ],
      "name": "safeBatchTransferFrom",
      "outputs": [],
      "stateMutability": "nonpayable",
      "type": "function"
    },
    {
      "inputs": [
        {
          "internalType": "address",
          "name": "from",
          "type": "address"
        },
        {
          "internalType": "address",
          "name": "to",
          "type": "address"
        },
        {
          "internalType": "uint256",
          "name": "id",
          "type": "uint256"
        },
        {
          "internalType": "uint256",
          "name": "amount",
          "type": "uint256"
        },
        {
          "internalType": "bytes",
          "name": "data",
          "type": "bytes"
        }
      ],
      "name": "safeTransferFrom",
      "outputs": [],
      "stateMutability": "nonpayable",
      "type": "function"
    },
    {
      "inputs": [
        {
          "internalType": "address",
          "name": "operator",
          "type": "address"
        },
        {
          "internalType": "bool",
          "name": "approved",
          "type": "bool"
        }
      ],
      "name": "setApprovalForAll",
      "outputs": [],
      "stateMutability": "nonpayable",
      "type": "function"
    },
    {
      "inputs": [
        {
          "internalType": "string",
          "name": "newURI",
          "type": "string"
        }
      ],
      "name": "setURI",
      "outputs": [],
      "stateMutability": "nonpayable",
      "type": "function"
    },
    {
      "inputs": [
        {
          "internalType": "bytes4",
          "name": "interfaceId",
          "type": "bytes4"
        }
      ],
      "name": "supportsInterface",
      "outputs": [
        {
          "internalType": "bool",
          "name": "",
          "type": "bool"
        }
      ],
      "stateMutability": "view",
      "type": "function"
    },
    {
      "inputs": [
        {
          "internalType": "address",
          "name": "newOwner",
          "type": "address"
        }
      ],
      "name": "transferOwnership",
      "outputs": [],
      "stateMutability": "nonpayable",
      "type": "function"
    },
    {
      "inputs": [
        {
          "internalType": "uint256",
          "name": "",
          "type": "uint256"
        }
      ],
      "name": "uri",
      "outputs": [
        {
          "internalType": "string",
          "name": "",
          "type": "string"
        }
      ],
      "stateMutability": "view",
      "type": "function"
    }
  ],
  "bytecode": "0x60806040526001600360006101000a81548160ff021916908360ff1602179055503480156200002d57600080fd5b506040518060600160405280602f81526020016200348c602f91396200005981620000ae60201b60201c565b5062000086336000670de0b6b3a764000060405180602001604052806000815250620000c360201b60201c565b620000a8600360009054906101000a900460ff166000620002aa60201b60201c565b62000ee4565b8060029081620000bf919062000804565b5050565b600073ffffffffffffffffffffffffffffffffffffffff168473ffffffffffffffffffffffffffffffffffffffff160362000135576040517f08c379a00000000000000000000000000000000000000000000000000000000081526004016200012c9062000972565b60405180910390fd5b600062000147620002d560201b60201c565b905060006200015c85620002dd60201b60201c565b905060006200017185620002dd60201b60201c565b90506200018a836000898585896200035e60201b60201c565b8460008088815260200190815260200160002060008973ffffffffffffffffffffffffffffffffffffffff1673ffffffffffffffffffffffffffffffffffffffff1681526020019081526020016000206000828254620001eb9190620009c3565b925050819055508673ffffffffffffffffffffffffffffffffffffffff16600073ffffffffffffffffffffffffffffffffffffffff168473ffffffffffffffffffffffffffffffffffffffff167fc3d58168c5ae7397731d063d5bbf3d657854427343f4c083240f7aacaa2d0f6289896040516200026b92919062000a0f565b60405180910390a46200028a836000898585896200036660201b60201c565b620002a1836000898989896200036e60201b60201c565b50505050505050565b620002d13360008460ff1660405180602001604052806000815250620000c360201b60201c565b5050565b600033905090565b60606000600167ffffffffffffffff811115620002ff57620002fe62000595565b5b6040519080825280602002602001820160405280156200032e5781602001602082028036833780820191505090505b509050828160008151811062000349576200034862000a3c565b5b60200260200101818152505080915050919050565b505050505050565b505050505050565b6200039a8473ffffffffffffffffffffffffffffffffffffffff166200056760201b6200077d1760201c565b156200055f578373ffffffffffffffffffffffffffffffffffffffff1663f23a6e6187878686866040518663ffffffff1660e01b8152600401620003e395949392919062000b4a565b6020604051808303816000875af19250505080156200042257506040513d601f19601f820116820180604052508101906200041f919062000c1a565b60015b620004d3576200043162000c59565b806308c379a0036200049457506200044862000cb4565b8062000455575062000496565b806040517f08c379a00000000000000000000000000000000000000000000000000000000081526004016200048b919062000d90565b60405180910390fd5b505b6040517f08c379a0000000000000000000000000000000000000000000000000000000008152600401620004ca9062000e2a565b60405180910390fd5b63f23a6e6160e01b7bffffffffffffffffffffffffffffffffffffffffffffffffffffffff1916817bffffffffffffffffffffffffffffffffffffffffffffffffffffffff1916146200055d576040517f08c379a0000000000000000000000000000000000000000000000000000000008152600401620005549062000ec2565b60405180910390fd5b505b505050505050565b6000808273ffffffffffffffffffffffffffffffffffffffff163b119050919050565b600081519050919050565b7f4e487b7100000000000000000000000000000000000000000000000000000000600052604160045260246000fd5b7f4e487b7100000000000000000000000000000000000000000000000000000000600052602260045260246000fd5b600060028204905060018216806200060c57607f821691505b602082108103620006225762000621620005c4565b5b50919050565b60008190508160005260206000209050919050565b60006020601f8301049050919050565b600082821b905092915050565b6000600883026200068c7fffffffffffffffffffffffffffffffffffffffffffffffffffffffffffffffff826200064d565b6200069886836200064d565b95508019841693508086168417925050509392505050565b6000819050919050565b6000819050919050565b6000620006e5620006df620006d984620006b0565b620006ba565b620006b0565b9050919050565b6000819050919050565b6200070183620006c4565b620007196200071082620006ec565b8484546200065a565b825550505050565b600090565b6200073062000721565b6200073d818484620006f6565b505050565b5b8181101562000765576200075960008262000726565b60018101905062000743565b5050565b601f821115620007b4576200077e8162000628565b62000789846200063d565b8101602085101562000799578190505b620007b1620007a8856200063d565b83018262000742565b50505b505050565b600082821c905092915050565b6000620007d960001984600802620007b9565b1980831691505092915050565b6000620007f48383620007c6565b9150826002028217905092915050565b6200080f826200058a565b67ffffffffffffffff8111156200082b576200082a62000595565b5b620008378254620005f3565b6200084482828562000769565b600060209050601f8311600181146200087c576000841562000867578287015190505b620008738582620007e6565b865550620008e3565b601f1984166200088c8662000628565b60005b82811015620008b6578489015182556001820191506020850194506020810190506200088f565b86831015620008d65784890151620008d2601f891682620007c6565b8355505b6001600288020188555050505b505050505050565b600082825260208201905092915050565b7f455243313135353a206d696e7420746f20746865207a65726f2061646472657360008201527f7300000000000000000000000000000000000000000000000000000000000000602082015250565b60006200095a602183620008eb565b91506200096782620008fc565b604082019050919050565b600060208201905081810360008301526200098d816200094b565b9050919050565b7f4e487b7100000000000000000000000000000000000000000000000000000000600052601160045260246000fd5b6000620009d082620006b0565b9150620009dd83620006b0565b9250828201905080821115620009f857620009f762000994565b5b92915050565b62000a0981620006b0565b82525050565b600060408201905062000a266000830185620009fe565b62000a356020830184620009fe565b9392505050565b7f4e487b7100000000000000000000000000000000000000000000000000000000600052603260045260246000fd5b600073ffffffffffffffffffffffffffffffffffffffff82169050919050565b600062000a988262000a6b565b9050919050565b62000aaa8162000a8b565b82525050565b600081519050919050565b600082825260208201905092915050565b60005b8381101562000aec57808201518184015260208101905062000acf565b60008484015250505050565b6000601f19601f8301169050919050565b600062000b168262000ab0565b62000b22818562000abb565b935062000b3481856020860162000acc565b62000b3f8162000af8565b840191505092915050565b600060a08201905062000b61600083018862000a9f565b62000b70602083018762000a9f565b62000b7f6040830186620009fe565b62000b8e6060830185620009fe565b818103608083015262000ba2818462000b09565b90509695505050505050565b6000604051905090565b600080fd5b60007fffffffff0000000000000000000000000000000000000000000000000000000082169050919050565b62000bf48162000bbd565b811462000c0057600080fd5b50565b60008151905062000c148162000be9565b92915050565b60006020828403121562000c335762000c3262000bb8565b5b600062000c438482850162000c03565b91505092915050565b60008160e01c9050919050565b600060033d111562000c7b5760046000803e62000c7860005162000c4c565b90505b90565b62000c898262000af8565b810181811067ffffffffffffffff8211171562000cab5762000caa62000595565b5b80604052505050565b600060443d1062000d4c5762000cc962000bae565b60043d036004823e80513d602482011167ffffffffffffffff8211171562000cf357505062000d4c565b808201805167ffffffffffffffff81111562000d13575050505062000d4c565b80602083010160043d03850181111562000d3257505050505062000d4c565b62000d438260200185018662000c7e565b82955050505050505b90565b600062000d5c826200058a565b62000d688185620008eb565b935062000d7a81856020860162000acc565b62000d858162000af8565b840191505092915050565b6000602082019050818103600083015262000dac818462000d4f565b905092915050565b7f455243313135353a207472616e7366657220746f206e6f6e204552433131353560008201527f526563656976657220696d706c656d656e746572000000000000000000000000602082015250565b600062000e12603483620008eb565b915062000e1f8262000db4565b604082019050919050565b6000602082019050818103600083015262000e458162000e03565b9050919050565b7f455243313135353a204552433131353552656365697665722072656a6563746560008201527f6420746f6b656e73000000000000000000000000000000000000000000000000602082015250565b600062000eaa602883620008eb565b915062000eb78262000e4c565b604082019050919050565b6000602082019050818103600083015262000edd8162000e9b565b9050919050565b6125988062000ef46000396000f3fe608060405234801561001057600080fd5b506004361061009d5760003560e01c80634e1273f4116100665780634e1273f41461016c578063a22cb4651461019c578063aa8c217c146101b8578063e985e9c5146101d6578063f242432a146102065761009d565b8062fdd58e146100a257806301ffc9a7146100d25780630e89341c146101025780631003aded146101325780632eb2c2d614610150575b600080fd5b6100bc60048036038101906100b7919061141a565b610222565b6040516100c99190611469565b60405180910390f35b6100ec60048036038101906100e791906114dc565b6102ea565b6040516100f99190611524565b60405180910390f35b61011c6004803603810190610117919061153f565b6103cc565b60405161012991906115fc565b60405180910390f35b61013a610460565b6040516101479190611469565b60405180910390f35b61016a6004803603810190610165919061181b565b610465565b005b610186600480360381019061018191906119ad565b610506565b6040516101939190611ae3565b60405180910390f35b6101b660048036038101906101b19190611b31565b61061f565b005b6101c0610635565b6040516101cd9190611b8d565b60405180910390f35b6101f060048036038101906101eb9190611ba8565b610648565b6040516101fd9190611524565b60405180910390f35b610220600480360381019061021b9190611be8565b6106dc565b005b60008073ffffffffffffffffffffffffffffffffffffffff168373ffffffffffffffffffffffffffffffffffffffff1603610292576040517f08c379a000000000000000000000000000000000000000000000000000000000815260040161028990611cf1565b60405180910390fd5b60008083815260200190815260200160002060008473ffffffffffffffffffffffffffffffffffffffff1673ffffffffffffffffffffffffffffffffffffffff16815260200190815260200160002054905092915050565b60007fd9b67a26000000000000000000000000000000000000000000000000000000007bffffffffffffffffffffffffffffffffffffffffffffffffffffffff1916827bffffffffffffffffffffffffffffffffffffffffffffffffffffffff191614806103b557507f0e89341c000000000000000000000000000000000000000000000000000000007bffffffffffffffffffffffffffffffffffffffffffffffffffffffff1916827bffffffffffffffffffffffffffffffffffffffffffffffffffffffff1916145b806103c557506103c4826107a0565b5b9050919050565b6060600280546103db90611d40565b80601f016020809104026020016040519081016040528092919081815260200182805461040790611d40565b80156104545780601f1061042957610100808354040283529160200191610454565b820191906000526020600020905b81548152906001019060200180831161043757829003601f168201915b50505050509050919050565b600081565b61046d61080a565b73ffffffffffffffffffffffffffffffffffffffff168573ffffffffffffffffffffffffffffffffffffffff1614806104b357506104b2856104ad61080a565b610648565b5b6104f2576040517f08c379a00000000000000000000000000000000000000000000000000000000081526004016104e990611de3565b60405180910390fd5b6104ff8585858585610812565b5050505050565b6060815183511461054c576040517f08c379a000000000000000000000000000000000000000000000000000000000815260040161054390611e75565b60405180910390fd5b6000835167ffffffffffffffff81111561056957610568611623565b5b6040519080825280602002602001820160405280156105975781602001602082028036833780820191505090505b50905060005b8451811015610614576105e48582815181106105bc576105bb611e95565b5b60200260200101518583815181106105d7576105d6611e95565b5b6020026020010151610222565b8282815181106105f7576105f6611e95565b5b6020026020010181815250508061060d90611ef3565b905061059d565b508091505092915050565b61063161062a61080a565b8383610b33565b5050565b600360009054906101000a900460ff1681565b6000600160008473ffffffffffffffffffffffffffffffffffffffff1673ffffffffffffffffffffffffffffffffffffffff16815260200190815260200160002060008373ffffffffffffffffffffffffffffffffffffffff1673ffffffffffffffffffffffffffffffffffffffff16815260200190815260200160002060009054906101000a900460ff16905092915050565b6106e461080a565b73ffffffffffffffffffffffffffffffffffffffff168573ffffffffffffffffffffffffffffffffffffffff16148061072a57506107298561072461080a565b610648565b5b610769576040517f08c379a000000000000000000000000000000000000000000000000000000000815260040161076090611de3565b60405180910390fd5b6107768585858585610c9f565b5050505050565b6000808273ffffffffffffffffffffffffffffffffffffffff163b119050919050565b60007f01ffc9a7000000000000000000000000000000000000000000000000000000007bffffffffffffffffffffffffffffffffffffffffffffffffffffffff1916827bffffffffffffffffffffffffffffffffffffffffffffffffffffffff1916149050919050565b600033905090565b8151835114610856576040517f08c379a000000000000000000000000000000000000000000000000000000000815260040161084d90611fad565b60405180910390fd5b600073ffffffffffffffffffffffffffffffffffffffff168473ffffffffffffffffffffffffffffffffffffffff16036108c5576040517f08c379a00000000000000000000000000000000000000000000000000000000081526004016108bc9061203f565b60405180910390fd5b60006108cf61080a565b90506108df818787878787610f3a565b60005b8451811015610a90576000858281518110610900576108ff611e95565b5b60200260200101519050600085838151811061091f5761091e611e95565b5b60200260200101519050600080600084815260200190815260200160002060008b73ffffffffffffffffffffffffffffffffffffffff1673ffffffffffffffffffffffffffffffffffffffff168152602001908152602001600020549050818110156109c0576040517f08c379a00000000000000000000000000000000000000000000000000000000081526004016109b7906120d1565b60405180910390fd5b81810360008085815260200190815260200160002060008c73ffffffffffffffffffffffffffffffffffffffff1673ffffffffffffffffffffffffffffffffffffffff168152602001908152602001600020819055508160008085815260200190815260200160002060008b73ffffffffffffffffffffffffffffffffffffffff1673ffffffffffffffffffffffffffffffffffffffff1681526020019081526020016000206000828254610a7591906120f1565b9250508190555050505080610a8990611ef3565b90506108e2565b508473ffffffffffffffffffffffffffffffffffffffff168673ffffffffffffffffffffffffffffffffffffffff168273ffffffffffffffffffffffffffffffffffffffff167f4a39dc06d4c0dbc64b70af90fd698a233a518aa5d07e595d983b8c0526c8f7fb8787604051610b07929190612125565b60405180910390a4610b1d818787878787610f42565b610b2b818787878787610f4a565b505050505050565b8173ffffffffffffffffffffffffffffffffffffffff168373ffffffffffffffffffffffffffffffffffffffff1603610ba1576040517f08c379a0000000000000000000000000000000000000000000000000000000008152600401610b98906121ce565b60405180910390fd5b80600160008573ffffffffffffffffffffffffffffffffffffffff1673ffffffffffffffffffffffffffffffffffffffff16815260200190815260200160002060008473ffffffffffffffffffffffffffffffffffffffff1673ffffffffffffffffffffffffffffffffffffffff16815260200190815260200160002060006101000a81548160ff0219169083151502179055508173ffffffffffffffffffffffffffffffffffffffff168373ffffffffffffffffffffffffffffffffffffffff167f17307eab39ab6107e8899845ad3d59bd9653f200f220920489ca2b5937696c3183604051610c929190611524565b60405180910390a3505050565b600073ffffffffffffffffffffffffffffffffffffffff168473ffffffffffffffffffffffffffffffffffffffff1603610d0e576040517f08c379a0000000000000000000000000000000000000000000000000000000008152600401610d059061203f565b60405180910390fd5b6000610d1861080a565b90506000610d2585611121565b90506000610d3285611121565b9050610d42838989858589610f3a565b600080600088815260200190815260200160002060008a73ffffffffffffffffffffffffffffffffffffffff1673ffffffffffffffffffffffffffffffffffffffff16815260200190815260200160002054905085811015610dd9576040517f08c379a0000000000000000000000000000000000000000000000000000000008152600401610dd0906120d1565b60405180910390fd5b85810360008089815260200190815260200160002060008b73ffffffffffffffffffffffffffffffffffffffff1673ffffffffffffffffffffffffffffffffffffffff168152602001908152602001600020819055508560008089815260200190815260200160002060008a73ffffffffffffffffffffffffffffffffffffffff1673ffffffffffffffffffffffffffffffffffffffff1681526020019081526020016000206000828254610e8e91906120f1565b925050819055508773ffffffffffffffffffffffffffffffffffffffff168973ffffffffffffffffffffffffffffffffffffffff168573ffffffffffffffffffffffffffffffffffffffff167fc3d58168c5ae7397731d063d5bbf3d657854427343f4c083240f7aacaa2d0f628a8a604051610f0b9291906121ee565b60405180910390a4610f21848a8a86868a610f42565b610f2f848a8a8a8a8a61119b565b505050505050505050565b505050505050565b505050505050565b610f698473ffffffffffffffffffffffffffffffffffffffff1661077d565b15611119578373ffffffffffffffffffffffffffffffffffffffff1663bc197c8187878686866040518663ffffffff1660e01b8152600401610faf95949392919061227b565b6020604051808303816000875af1925050508015610feb57506040513d601f19601f82011682018060405250810190610fe891906122f8565b60015b61109057610ff7612332565b806308c379a003611053575061100b612354565b806110165750611055565b806040517f08c379a000000000000000000000000000000000000000000000000000000000815260040161104a91906115fc565b60405180910390fd5b505b6040517f08c379a000000000000000000000000000000000000000000000000000000000815260040161108790612456565b60405180910390fd5b63bc197c8160e01b7bffffffffffffffffffffffffffffffffffffffffffffffffffffffff1916817bffffffffffffffffffffffffffffffffffffffffffffffffffffffff191614611117576040517f08c379a000000000000000000000000000000000000000000000000000000000815260040161110e906124e8565b60405180910390fd5b505b505050505050565b60606000600167ffffffffffffffff8111156111405761113f611623565b5b60405190808252806020026020018201604052801561116e5781602001602082028036833780820191505090505b509050828160008151811061118657611185611e95565b5b60200260200101818152505080915050919050565b6111ba8473ffffffffffffffffffffffffffffffffffffffff1661077d565b1561136a578373ffffffffffffffffffffffffffffffffffffffff1663f23a6e6187878686866040518663ffffffff1660e01b8152600401611200959493929190612508565b6020604051808303816000875af192505050801561123c57506040513d601f19601f8201168201806040525081019061123991906122f8565b60015b6112e157611248612332565b806308c379a0036112a4575061125c612354565b8061126757506112a6565b806040517f08c379a000000000000000000000000000000000000000000000000000000000815260040161129b91906115fc565b60405180910390fd5b505b6040517f08c379a00000000000000000000000000000000000000000000000000000000081526004016112d890612456565b60405180910390fd5b63f23a6e6160e01b7bffffffffffffffffffffffffffffffffffffffffffffffffffffffff1916817bffffffffffffffffffffffffffffffffffffffffffffffffffffffff191614611368576040517f08c379a000000000000000000000000000000000000000000000000000000000815260040161135f906124e8565b60405180910390fd5b505b505050505050565b6000604051905090565b600080fd5b600080fd5b600073ffffffffffffffffffffffffffffffffffffffff82169050919050565b60006113b182611386565b9050919050565b6113c1816113a6565b81146113cc57600080fd5b50565b6000813590506113de816113b8565b92915050565b6000819050919050565b6113f7816113e4565b811461140257600080fd5b50565b600081359050611414816113ee565b92915050565b600080604083850312156114315761143061137c565b5b600061143f858286016113cf565b925050602061145085828601611405565b9150509250929050565b611463816113e4565b82525050565b600060208201905061147e600083018461145a565b92915050565b60007fffffffff0000000000000000000000000000000000000000000000000000000082169050919050565b6114b981611484565b81146114c457600080fd5b50565b6000813590506114d6816114b0565b92915050565b6000602082840312156114f2576114f161137c565b5b6000611500848285016114c7565b91505092915050565b60008115159050919050565b61151e81611509565b82525050565b60006020820190506115396000830184611515565b92915050565b6000602082840312156115555761155461137c565b5b600061156384828501611405565b91505092915050565b600081519050919050565b600082825260208201905092915050565b60005b838110156115a657808201518184015260208101905061158b565b60008484015250505050565b6000601f19601f8301169050919050565b60006115ce8261156c565b6115d88185611577565b93506115e8818560208601611588565b6115f1816115b2565b840191505092915050565b6000602082019050818103600083015261161681846115c3565b905092915050565b600080fd5b7f4e487b7100000000000000000000000000000000000000000000000000000000600052604160045260246000fd5b61165b826115b2565b810181811067ffffffffffffffff8211171561167a57611679611623565b5b80604052505050565b600061168d611372565b90506116998282611652565b919050565b600067ffffffffffffffff8211156116b9576116b8611623565b5b602082029050602081019050919050565b600080fd5b60006116e26116dd8461169e565b611683565b90508083825260208201905060208402830185811115611705576117046116ca565b5b835b8181101561172e578061171a8882611405565b845260208401935050602081019050611707565b5050509392505050565b600082601f83011261174d5761174c61161e565b5b813561175d8482602086016116cf565b91505092915050565b600080fd5b600067ffffffffffffffff82111561178657611785611623565b5b61178f826115b2565b9050602081019050919050565b82818337600083830152505050565b60006117be6117b98461176b565b611683565b9050828152602081018484840111156117da576117d9611766565b5b6117e584828561179c565b509392505050565b600082601f8301126118025761180161161e565b5b81356118128482602086016117ab565b91505092915050565b600080600080600060a086880312156118375761183661137c565b5b6000611845888289016113cf565b9550506020611856888289016113cf565b945050604086013567ffffffffffffffff81111561187757611876611381565b5b61188388828901611738565b935050606086013567ffffffffffffffff8111156118a4576118a3611381565b5b6118b088828901611738565b925050608086013567ffffffffffffffff8111156118d1576118d0611381565b5b6118dd888289016117ed565b9150509295509295909350565b600067ffffffffffffffff82111561190557611904611623565b5b602082029050602081019050919050565b6000611929611924846118ea565b611683565b9050808382526020820190506020840283018581111561194c5761194b6116ca565b5b835b81811015611975578061196188826113cf565b84526020840193505060208101905061194e565b5050509392505050565b600082601f8301126119945761199361161e565b5b81356119a4848260208601611916565b91505092915050565b600080604083850312156119c4576119c361137c565b5b600083013567ffffffffffffffff8111156119e2576119e1611381565b5b6119ee8582860161197f565b925050602083013567ffffffffffffffff811115611a0f57611a0e611381565b5b611a1b85828601611738565b9150509250929050565b600081519050919050565b600082825260208201905092915050565b6000819050602082019050919050565b611a5a816113e4565b82525050565b6000611a6c8383611a51565b60208301905092915050565b6000602082019050919050565b6000611a9082611a25565b611a9a8185611a30565b9350611aa583611a41565b8060005b83811015611ad6578151611abd8882611a60565b9750611ac883611a78565b925050600181019050611aa9565b5085935050505092915050565b60006020820190508181036000830152611afd8184611a85565b905092915050565b611b0e81611509565b8114611b1957600080fd5b50565b600081359050611b2b81611b05565b92915050565b60008060408385031215611b4857611b4761137c565b5b6000611b56858286016113cf565b9250506020611b6785828601611b1c565b9150509250929050565b600060ff82169050919050565b611b8781611b71565b82525050565b6000602082019050611ba26000830184611b7e565b92915050565b60008060408385031215611bbf57611bbe61137c565b5b6000611bcd858286016113cf565b9250506020611bde858286016113cf565b9150509250929050565b600080600080600060a08688031215611c0457611c0361137c565b5b6000611c12888289016113cf565b9550506020611c23888289016113cf565b9450506040611c3488828901611405565b9350506060611c4588828901611405565b925050608086013567ffffffffffffffff811115611c6657611c65611381565b5b611c72888289016117ed565b9150509295509295909350565b7f455243313135353a2061646472657373207a65726f206973206e6f742061207660008201527f616c6964206f776e657200000000000000000000000000000000000000000000602082015250565b6000611cdb602a83611577565b9150611ce682611c7f565b604082019050919050565b60006020820190508181036000830152611d0a81611cce565b9050919050565b7f4e487b7100000000000000000000000000000000000000000000000000000000600052602260045260246000fd5b60006002820490506001821680611d5857607f821691505b602082108103611d6b57611d6a611d11565b5b50919050565b7f455243313135353a2063616c6c6572206973206e6f7420746f6b656e206f776e60008201527f6572206e6f7220617070726f7665640000000000000000000000000000000000602082015250565b6000611dcd602f83611577565b9150611dd882611d71565b604082019050919050565b60006020820190508181036000830152611dfc81611dc0565b9050919050565b7f455243313135353a206163636f756e747320616e6420696473206c656e67746860008201527f206d69736d617463680000000000000000000000000000000000000000000000602082015250565b6000611e5f602983611577565b9150611e6a82611e03565b604082019050919050565b60006020820190508181036000830152611e8e81611e52565b9050919050565b7f4e487b7100000000000000000000000000000000000000000000000000000000600052603260045260246000fd5b7f4e487b7100000000000000000000000000000000000000000000000000000000600052601160045260246000fd5b6000611efe826113e4565b91507fffffffffffffffffffffffffffffffffffffffffffffffffffffffffffffffff8203611f3057611f2f611ec4565b5b600182019050919050565b7f455243313135353a2069647320616e6420616d6f756e7473206c656e6774682060008201527f6d69736d61746368000000000000000000000000000000000000000000000000602082015250565b6000611f97602883611577565b9150611fa282611f3b565b604082019050919050565b60006020820190508181036000830152611fc681611f8a565b9050919050565b7f455243313135353a207472616e7366657220746f20746865207a65726f20616460008201527f6472657373000000000000000000000000000000000000000000000000000000602082015250565b6000612029602583611577565b915061203482611fcd565b604082019050919050565b600060208201905081810360008301526120588161201c565b9050919050565b7f455243313135353a20696e73756666696369656e742062616c616e636520666f60008201527f72207472616e7366657200000000000000000000000000000000000000000000602082015250565b60006120bb602a83611577565b91506120c68261205f565b604082019050919050565b600060208201905081810360008301526120ea816120ae565b9050919050565b60006120fc826113e4565b9150612107836113e4565b925082820190508082111561211f5761211e611ec4565b5b92915050565b6000604082019050818103600083015261213f8185611a85565b905081810360208301526121538184611a85565b90509392505050565b7f455243313135353a2073657474696e6720617070726f76616c2073746174757360008201527f20666f722073656c660000000000000000000000000000000000000000000000602082015250565b60006121b8602983611577565b91506121c38261215c565b604082019050919050565b600060208201905081810360008301526121e7816121ab565b9050919050565b6000604082019050612203600083018561145a565b612210602083018461145a565b9392505050565b612220816113a6565b82525050565b600081519050919050565b600082825260208201905092915050565b600061224d82612226565b6122578185612231565b9350612267818560208601611588565b612270816115b2565b840191505092915050565b600060a0820190506122906000830188612217565b61229d6020830187612217565b81810360408301526122af8186611a85565b905081810360608301526122c38185611a85565b905081810360808301526122d78184612242565b90509695505050505050565b6000815190506122f2816114b0565b92915050565b60006020828403121561230e5761230d61137c565b5b600061231c848285016122e3565b91505092915050565b60008160e01c9050919050565b600060033d11156123515760046000803e61234e600051612325565b90505b90565b600060443d106123e157612366611372565b60043d036004823e80513d602482011167ffffffffffffffff8211171561238e5750506123e1565b808201805167ffffffffffffffff8111156123ac57505050506123e1565b80602083010160043d0385018111156123c95750505050506123e1565b6123d882602001850186611652565b82955050505050505b90565b7f455243313135353a207472616e7366657220746f206e6f6e204552433131353560008201527f526563656976657220696d706c656d656e746572000000000000000000000000602082015250565b6000612440603483611577565b915061244b826123e4565b604082019050919050565b6000602082019050818103600083015261246f81612433565b9050919050565b7f455243313135353a204552433131353552656365697665722072656a6563746560008201527f6420746f6b656e73000000000000000000000000000000000000000000000000602082015250565b60006124d2602883611577565b91506124dd82612476565b604082019050919050565b60006020820190508181036000830152612501816124c5565b9050919050565b600060a08201905061251d6000830188612217565b61252a6020830187612217565b612537604083018661145a565b612544606083018561145a565b81810360808301526125568184612242565b9050969550505050505056fea26469706673582212206a1671d53535324f8039448b6e0a638669e58495860ce05e3f24adaeb353ef0864736f6c6343000811003368747470733a2f2f726c686f2e6769746875622e696f2f6e66745f73616d706c652f25374269642537442e6a736f6e",
  "linkReferences": {},
  "deployedLinkReferences": {}
}